:100000000C9458000C9480000C9480000C94800098
:100010000C9480000C9480000C9480000C94800060
:100020000C9480000C9480000C9480000C94800050
:100030000C9480000C9480000C9480000C94800040
:100040000C945E040C9480000C942C040C94060414
:100050000C9480000C9480000C9480000C94800020
:100060000C94A8040C9480000000000025002800D7
:100070002B00040404040404040402020202020229
:10008000030303030303010204081020408001025C
:1000900004081020010204081020000000080002DB
:1000A0000100000304070000000000000000C70575
:1000B00011241FBECFEFD8E0DEBFCDBF11E0A0E01E
:1000C000B1E0EAE0F2E102C005900D92A63DB10771
:1000D000D9F723E0A6EDB1E001C01D92A635B20725
:1000E000E1F710E0C8E5D0E004C02197FE010E94CE
:1000F000FD08C735D107C9F70E9416060C940309FD
:100100000C9400002091940281E0213208F044C058
:10011000809170028111FCCF8091930292E09093C4
:10012000700291E090936F029FEF90936E02109295
:100130006D0220936C02A3E7B2E0ECE4F2E090E001
:10014000291331C010924B0290914B02880F892BDA
:1001500080934B0280914A02813049F510924A0205
:1001600080914B028093BB008091BC0083FDF8CF4F
:1001700085EC8093BC00809170028230E1F3809125
:100180006E028F3FB1F080916E028032A1F08091BB
:100190006E02803391F084E0109272021092940209
:1001A0001092710208953D9131939F5FC9CF85EE02
:1001B000E0CF80E0F1CF82E0EFCF83E0EDCF90E0C1
:1001C000FC01E656FF4F2491FC01EA57FF4F3491A2
:1001D000FC01EE58FF4FE491EE23B1F0222339F0F9
:1001E0002330E9F090F4213001F1223011F1F0E0F8
:1001F000EE0FFF1FE859FF4FA591B4918FB7F89408
:10020000EC913E2B3C938FBF08952730A9F0283006
:10021000C9F0243061F7809180008F7D03C0809108
:1002200080008F7780938000E2CF84B58F7784BD84
:10023000DECF84B58F7DFBCF8091B0008F77809328
:10024000B000D5CF8091B0008F7DF9CF089508958B
:100250001092490210924802109272021092940277
:100260001092700281E080936F0210924A0282E144
:100270000E94DF0083E10E94DF00E9EBF0E0808173
:100280008E7F808380818D7F808388E48093B80017
:1002900085E48093BC0086E291E0909347028093CE
:1002A000460287E291E090934502809344020895CC
:1002B000AF92BF92CF92DF92EF92FF920F931F9374
:1002C000CF93DF936C017B018B01040F151FEB01B2
:1002D0005E01AE18BF08C017D10759F06991D60169
:1002E000ED91FC910190F081E02DC6010995892BDB
:1002F00079F7C501DF91CF911F910F91FF90EF909A
:10030000DF90CF90BF90AF900895FC01538D448D46
:10031000252F30E0842F90E0821B930B541710F0B0
:10032000CF96089501970895FC01918D828D9817BD
:1003300061F0A28DAE0FBF2FB11D5D968C91928D95
:100340009F5F9F73928F90E008958FEF9FEF0895C6
:10035000FC01918D828D981731F0828DE80FF11D8F
:10036000858D90E008958FEF9FEF0895FC01918DAA
:10037000228D892F90E0805C9F4F821B91098F73A3
:100380009927089585E992E00E94B60121E0892B22
:1003900009F420E0822F089580E090E0892B29F075
:1003A0000E94C20181110C9400000895FC01A48DEB
:1003B000A80FB92FB11DA35ABF4F2C91848D90E087
:1003C00001968F739927848FA689B7892C93A0896A
:1003D000B1898C91837080648C93938D848D9813F4
:1003E00006C00288F389E02D80818F7D8083089587
:1003F000EF92FF920F931F93CF93DF93EC0181E075
:10040000888F9B8D8C8D98131AC0E889F98980811B
:1004100085FF15C09FB7F894EE89FF896083E8894E
:10042000F98980818370806480839FBF81E090E040
:10043000DF91CF911F910F91FF90EF900895F62ECD
:100440000B8D10E00F5F1F4F0F731127E02E8C8D67
:100450008E110CC00FB607FCFACFE889F9898081AC
:1004600085FFF5CFCE010E94D601F1CFEB8DEC0FC9
:10047000FD2FF11DE35AFF4FF0829FB7F8940B8FC9
:10048000EA89FB8980818062CFCFCF93DF93EC0133
:10049000888D8823B9F0AA89BB89E889F9898C916C
:1004A00085FD03C0808186FD0DC00FB607FCF7CF28
:1004B0008C9185FFF2CF808185FFEDCFCE010E9428
:1004C000D601E9CFDF91CF9108953FB7F89480919D
:1004D0003E0290913F02A0914002B091410226B5A8
:1004E000A89B05C02F3F19F00196A11DB11D3FBF6C
:1004F000BA2FA92F982F8827BC01CD01620F711D3B
:10050000811D911D42E0660F771F881F991F4A9534
:10051000D1F708958F929F92AF92BF92CF92DF92C0
:10052000EF92FF924B015C010E9465026B017C011E
:100530000E9465026C197D098E099F09683E73400F
:1005400081059105A8F321E0821A9108A108B1085C
:1005500088EEC80E83E0D81EE11CF11C81149104C2
:10056000A104B10429F7FF90EF90DF90CF90BF90E6
:10057000AF909F908F900895089585ED8093BC0073
:100580008091BC0084FDFCCF1092700208952091F0
:100590001602260F3327331F21323105ECF4209148
:1005A0007002FC0190E080E0243069F082E0089560
:1005B000A09116022191AC014A505E4FA40FB52FB5
:1005C000B11D2C930196861798F380911602680F3F
:1005D0006093160280E0089581E008950895E09107
:1005E000490280914802E81730F4F0E0EA52FE4FE9
:1005F000808190E008958FEF9FEF089590914902D8
:10060000809148022FEF3FEF981748F4E92FF0E070
:10061000EA52FE4F208130E09F5F90934902C9016A
:1006200008958091480290914902891B990B089581
:10063000CF92DF92EF92FF920F931F93CF93DF93AE
:100640007C01CB018A0120917102222389F0EB0108
:100650006B01C40ED51ECC15DD0569F06991D7017B
:10066000ED91FC910190F081E02DC7010995F3CF48
:10067000642F0E94C702C801DF91CF911F910F9193
:10068000FF90EF90DF90CF900895CF93DF931F926C
:10069000CDB7DEB76983209171022223F9F0209152
:1006A0009402203258F021E030E0FC0133832283B1
:1006B00090E080E00F90DF91CF91089580917202D9
:1006C000E82FF0E0ED58FD4F998190838F5F809384
:1006D00072028093940281E090E0ECCF61E0CE0161
:1006E00001960E94C702F7CF34E0660F771F3A9554
:1006F000E1F74111616021116460FC0126813781BD
:10070000121613060CF46860FC01848191E090934A
:10071000710280939302109272021092940282E30B
:1007200093E00E9445030C94820090E080E00895DD
:10073000FF920F931F93CF93DF93EC018B01F42E65
:1007400021E00E94740320E04F2DB801CE010E94E9
:1007500074038FE890E00197F1F7DF91CF911F913B
:100760000F91FF900895FF920F931F93CF93DF9304
:100770008C01EB01F42E84E0759567958A95E1F77D
:100780006F707727C8010E949803BE016F707727AA
:100790004F2DC801DF91CF911F910F91FF900C94C5
:1007A000980340E061E070E08EE393E00E94B303C1
:1007B0008BEF98E10197F1F7089570E041E00E9416
:1007C000B30381E090E00895FB0101900020E9F778
:1007D0003197AF01461B570BDC01ED91FC91028074
:1007E000F381E02D0994CF93DF93BC0185E992E07A
:1007F0000E94E403EC0160E371E085E992E00E946D
:10080000E4038C0F9D1FDF91CF9108951F920F92EB
:100810000FB60F9211242F933F934F935F936F93D3
:100820007F938F939F93AF93BF93EF93FF9385E94C
:1008300092E00E94D601FF91EF91BF91AF919F91FD
:100840008F917F916F915F914F913F912F910F9079
:100850000FBE0F901F9018951F920F920FB60F9218
:1008600011242F938F939F93EF93FF93E091A50211
:10087000F091A6028081E091AB02F091AC0282FD82
:100880001BC090818091AE028F5F8F732091AF0269
:10089000821741F0E091AE02F0E0EB56FD4F958FEC
:1008A0008093AE02FF91EF919F918F912F910F90C6
:1008B0000FBE0F901F9018958081F4CF1F920F925A
:1008C0000FB60F9211242F933F938F939F93AF9363
:1008D000BF9380913A0290913B02A0913C02B0916B
:1008E0003D023091390223E0230F2D3758F5019650
:1008F000A11DB11D2093390280933A0290933B02CF
:10090000A0933C02B0933D0280913E0290913F0241
:10091000A0914002B09141020196A11DB11D8093AA
:100920003E0290933F02A0934002B0934102BF91D8
:10093000AF919F918F913F912F910F900FBE0F908C
:100940001F90189526E8230F0296A11DB11DD2CF46
:100950001F920F920FB60F9211242F933F934F9334
:100960005F936F937F938F939F93AF93BF93EF9317
:10097000FF938091B900887F803609F44AC0F0F572
:10098000883209F4A7C018F5803109F49BC0B8F487
:10099000882309F4F9C0883009F494C0FF91EF91DD
:1009A000BF91AF919F918F917F916F915F914F9187
:1009B0003F912F910F900FBE0F901F901895883187
:1009C00009F488C0803251F780936E0214C08034DD
:1009D00009F49DC040F48033B9F38833F9F680936D
:1009E0006E0285ECB0C0803509F485C0883509F405
:1009F00096C0883499F60E94BD02D0CF883909F498
:100A00008CC038F5883729F050F4883611F08037DB
:100A100029F683E0809370021092380257C088381C
:100A200009F47BC0803919F0803809F0B7CF809184
:100A30003802803208F071C0E091380281E08E0FF8
:100A4000809338028091BB00F0E0E85EFD4F808328
:100A50003DC0803B39F0E0F4803A09F479C0883A2F
:100A600009F09CCF84E080937002109217021092DC
:100A70001602E0914602F091470209958091160214
:100A800081110FC081E0809316021092F60109C017
:100A9000803C09F4A6CF883C09F4A3CF883B09F039
:100AA0007DCFE091170281E08E0F80931702F0E076
:100AB000EA50FE4F80818093BB0090911702809195
:100AC000160229C080914B028093BB0085EC809375
:100AD000BC0064CF90916D0280916C02981758F51C
:100AE000E0916D0281E08E0F80936D02F0E0E45B97
:100AF000FD4F8081E9CFE0916D0281E08E0F809300
:100B00006D028091BB00F0E0E45BFD4F808390912B
:100B10006D0280916C029817C8F285E8D8CFE091F9
:100B20006D0281E08E0F80936D028091BB00F0E03A
:100B3000E45BFD4F808380916F0281115CCF81E087
:100B400080934A0284EA8093BC001092700226CF00
:100B500085EC8093BC001092700280913802803244
:100B600030F4E0913802F0E0E85EFD4F10826091D1
:100B7000380270E0E0914402F091450288E192E091
:100B80000995109238020ACF10926E0234CFE5E92F
:100B9000F2E01382128288EE93E0A0E0B0E084835A
:100BA0009583A683B78324E031E03183208325EC4D
:100BB00030E03587248724EC30E03787268720EC27
:100BC00030E0318B208B21EC30E0338B228B22EC18
:100BD00030E0358B248B26EC30E0378B268B118E62
:100BE000128E138E148EE2E3F3E01382128284835A
:100BF0009583A683B78386E191E091838083EEE3BA
:100C0000F3E01382128288E291E09183808388E38B
:100C100090E0958384831782168282E090E0958726
:100C2000848784E090E0978786870895CF93DF9349
:100C3000CDB7DEB7A1970FB6F894DEBF0FBECDBF1C
:100C4000789484B5826084BD84B5816084BD85B5A7
:100C5000826085BD85B5816085BD80916E008160B3
:100C600080936E0010928100809181008260809359
:100C7000810080918100816080938100809180005B
:100C80008160809380008091B10084608093B10086
:100C90008091B00081608093B00080917A00846080
:100CA00080937A0080917A00826080937A008091AC
:100CB0007A00816080937A0080917A0080688093C6
:100CC0007A001092C100E091A502F091A60282E0A4
:100CD0008083E091A102F091A2021082E091A30230
:100CE000F091A4028FEC80831092AD02E091A902F2
:100CF000F091AA0286E08083E091A702F091A80219
:100D0000808180618083E091A702F091A8028081B8
:100D100088608083E091A702F091A80280818068BA
:100D20008083E091A702F091A80280818F7D80836B
:100D300083E391E00E94F3038AE391E00E94F303CE
:100D40000E94280181E08093710288E380939302DE
:100D500010927202109294020E948200F82E6EE4A9
:100D600071E085E992E00E94E4032F2D30E050E02D
:100D700040E019A28E010F5D1F4F6AE0862E912C74
:100D8000A12CB12CCA01B901A50194010E94C70888
:100D9000605DF80162938F01211531054105510510
:100DA00089F7309729F0BF0185E992E00E94E403BA
:100DB00086E591E0FF2011F083E691E00E94F303C5
:100DC00080E190E0909347038093460302E010E0B7
:100DD000109349030093480310924F0310924E035F
:100DE00020E430E030935103209350039093530359
:100DF0008093520380E590E09093550380935403D1
:100E00000E94280120E040E070E060E08EE393E083
:100E10000E9474038BE39DE00197F1F784E090E07A
:100E200090934D0380934C0310934B0300934A031C
:100E300040E063E070E08EE393E00E9498038BE46F
:100E400096E40197F1F740E063E070E08EE393E011
:100E50000E9498030BE113E0C8010197F1F740E00D
:100E600063E070E08EE393E00E949803C80101976D
:100E7000F1F740E062E070E08EE393E00E949803B7
:100E800040E068E270E08EE393E00E94B30360917B
:100E90004C0370914D03CB01846090934D0380937C
:100EA0004C036C6040E08EE393E00E94B3030E9429
:100EB000D10360914A0370914B03CB018260909300
:100EC0004B0380934A03666040E08EE393E00E9408
:100ED000B30310924302109242028BEFA82E88E1D6
:100EE000B82E9CE0E92EF12C20E0C22E20E0D22E7C
:100EF0000FEF10E08091420290914302009709F0B9
:100F000060C0109345030093440320E041E070E08B
:100F100060E08EE393E00E94740340E062E070E0E2
:100F20008EE393E00E94B303C5010197F1F70E949D
:100F3000D10364E771E08EE393E00E94E40368EE7E
:100F400073E080E090E00E948A02109245031092C4
:100F5000440320E041E070E060E08EE393E00E9413
:100F6000740360E971E080E090E00E948A021093CF
:100F700045030093440320E041E070E060E08EE32D
:100F800093E00E94740360ED77E080E090E00E94BF
:100F90008A0280914202909143020196B7010E9419
:100FA000B3089093430280934202C114D10409F420
:100FB000A1CF0E94C201882309F49CCF0E940000A7
:100FC00099CF81309105C9F40E94D1036EE771E099
:100FD0008EE393E00E94E40360914C0370914D0313
:100FE000CB01826090934D0380934C036A6040E094
:100FF0008EE393E00E94B303C6CF82309105A1F443
:101000000E94D10368E871E08EE393E00E94E4035C
:1010100060914C0370914D03CB01816090934D031F
:1010200080934C036960E3CF8330910511F50E94F2
:10103000D10365E971E08EE393E00E94E4036091DF
:101040004C0370914D036E7F70934D0360934C037E
:10105000686040E08EE393E00E94B30360914C032C
:1010600070914D036D7F70934D0360934C036860E6
:10107000BECF8430910571F40E94D10360EA71E023
:101080008EE393E00E94E40360914C0370914D0362
:101090006B7FE9CF85309105A1F40E94D1036CEA02
:1010A00071E08EE393E00E94E40360914C03709141
:1010B0004D03CB01846090934D0380934C036C608F
:1010C00096CF87309105F1F50E94D10380914603B8
:1010D00090914703181619068CF48091480390915B
:1010E00049031816190654F460914E0370914F038A
:1010F000606840E08EE393E00E94B30367EB71E029
:101100008EE393E00E94E4038091460390914703AD
:101110001816190684F480914803909149030297A8
:1011200054F06091500370915103606840E08EE389
:1011300093E00E94B30365EC71E08EE393E00E94BC
:10114000E40321CF9C012850310940E068E170E0C0
:101150002330310508F44CCF0B9709F014CF40E051
:101160006CE170E045CF97FB072E16F4009407D092
:1011700077FD09D00E94E90807FC05D03EF4909560
:1011800081959F4F0895709561957F4F0895A1E2D5
:101190001A2EAA1BBB1BFD010DC0AA1FBB1FEE1FF1
:1011A000FF1FA217B307E407F50720F0A21BB30B3C
:1011B000E40BF50B661F771F881F991F1A9469F7B8
:1011C00060957095809590959B01AC01BD01CF0114
:1011D0000895AA1BBB1B51E107C0AA1FBB1FA6177E
:1011E000B70710F0A61BB70B881F991F5A95A9F7D0
:1011F00080959095BC01CD010895EE0FFF1F0590DD
:0A120000F491E02D0994F894FFCF5B
:10120A0000000000F801580185014502B601940169
:10121A00A80100000000450318039503EE0211031C
:10122A00FE02EF0200000000DD0358019503BC0234
:10123A000D0A004C43442E2E2E00446F73653A204B
:10124A00636865636B20666F72204C434400457285
:10125A00726F723A20003A204C434420666F756ED2
:10126A00642E003A204C4344206E6F7420666F75DA
:10127A006E642E00547269616C204C4344004375BD
:10128A0072736F72204F6E00437572736F722042D1
:10129A006C696E6B00437572736F72204F4646001D
:1012AA00446973706C6179204F6666004469737093
:1012BA006C6179204F6E002A48656C6C6F20576FFD
:1012CA00726C642A002A6E7965626172696C6D7546
:0612DA002E636F6D2A0077
:107E0000112484B714BE81FFF0D085E080938100F7
:107E100082E08093C00088E18093C10086E0809377
:107E2000C20080E18093C4008EE0C9D0259A86E02C
:107E300020E33CEF91E0309385002093840096BBD3
:107E4000B09BFECF1D9AA8958150A9F7CC24DD24C4
:107E500088248394B5E0AB2EA1E19A2EF3E0BF2EE7
:107E6000A2D0813461F49FD0082FAFD0023811F036
:107E7000013811F484E001C083E08DD089C08234E0
:107E800011F484E103C0853419F485E0A6D080C0E4
:107E9000853579F488D0E82EFF2485D0082F10E0AE
:107EA000102F00270E291F29000F111F8ED06801E7
:107EB0006FC0863521F484E090D080E0DECF843638
:107EC00009F040C070D06FD0082F6DD080E0C81688
:107ED00080E7D80618F4F601B7BEE895C0E0D1E017
:107EE00062D089930C17E1F7F0E0CF16F0E7DF06D8
:107EF00018F0F601B7BEE89568D007B600FCFDCFD4
:107F0000A601A0E0B1E02C9130E011968C91119780
:107F100090E0982F8827822B932B1296FA010C0160
:107F200087BEE89511244E5F5F4FF1E0A038BF0790
:107F300051F7F601A7BEE89507B600FCFDCF97BE46
:107F4000E89526C08437B1F42ED02DD0F82E2BD052
:107F50003CD0F601EF2C8F010F5F1F4F84911BD097
:107F6000EA94F801C1F70894C11CD11CFA94CF0C13
:107F7000D11C0EC0853739F428D08EE10CD085E9AC
:107F80000AD08FE07ACF813511F488E018D01DD067
:107F900080E101D065CF982F8091C00085FFFCCF94
:107FA0009093C60008958091C00087FFFCCF809118
:107FB000C00084FD01C0A8958091C6000895E0E648
:107FC000F0E098E1908380830895EDDF803219F02E
:107FD00088E0F5DFFFCF84E1DECF1F93182FE3DFCA
:107FE0001150E9F7F2DF1F91089580E0E8DFEE27F6
:047FF000FF270994CA
:027FFE00040479
:0400000300007E007B
:00000001FF
